{
  "contractName": "Cercle",
  "abi": [
    {
      "inputs": [
        {
          "internalType": "uint256",
          "name": "_rayon",
          "type": "uint256"
        }
      ],
      "stateMutability": "nonpayable",
      "type": "constructor"
    },
    {
      "inputs": [],
      "name": "surface",
      "outputs": [
        {
          "internalType": "uint256",
          "name": "",
          "type": "uint256"
        }
      ],
      "stateMutability": "view",
      "type": "function"
    }
  ],
  "bytecode": "0x608060405261013a600155348015610015575f80fd5b5060405161025c38038061025c8339818101604052810190610037919061007a565b805f81905550506100a5565b5f80fd5b5f819050919050565b61005981610047565b8114610063575f80fd5b50565b5f8151905061007481610050565b92915050565b5f6020828403121561008f5761008e610043565b5b5f61009c84828501610066565b91505092915050565b6101aa806100b25f395ff3fe608060405234801561000f575f80fd5b5060043610610029575f3560e01c80630e94ba831461002d575b5f80fd5b61003561004b565b6040516100429190610090565b60405180910390f35b5f60645f545f5460015461005f91906100d6565b61006991906100d6565b6100739190610144565b905090565b5f819050919050565b61008a81610078565b82525050565b5f6020820190506100a35f830184610081565b92915050565b7f4e487b71000000000000000000000000000000000000000000000000000000005f52601160045260245ffd5b5f6100e082610078565b91506100eb83610078565b92508282026100f981610078565b915082820484148315176101105761010f6100a9565b5b5092915050565b7f4e487b71000000000000000000000000000000000000000000000000000000005f52601260045260245ffd5b5f61014e82610078565b915061015983610078565b92508261016957610168610117565b5b82820490509291505056fea26469706673582212203a03a5f3305a4d43b1e1f6965c46e170b0929cef8fdcad06c07cc3b27e0eaf4964736f6c63430008150033",
  "immutableReferences": {},
  "source": "// SPDX-License-Identifier: MIT\r\npragma solidity ^0.8.0;\r\n\r\nabstract contract Forme {\r\n    function surface() public view virtual returns (uint);\r\n}\r\n\r\ncontract Carre is Forme {\r\n    uint private cote;\r\n\r\n    constructor(uint _cote) {\r\n        cote = _cote;\r\n    }\r\n\r\n    function surface() public view override returns (uint) {\r\n        return cote * cote;\r\n    }\r\n}\r\n\r\ncontract Cercle is Forme {\r\n    uint private rayon;\r\n    uint private constantePI = 314; \r\n\r\n    constructor(uint _rayon) {\r\n        rayon = _rayon;\r\n    }\r\n\r\n    function surface() public view override returns (uint) {\r\n        return (constantePI * rayon * rayon) / 100;\r\n    }\r\n}\r\n",
  "sourcePath": "C:\\Users\\Yamini\\blockchain-dapp\\contracts\\Exercice7.sol",
  "compiler": {
    "name": "solc",
    "version": "0.8.21+commit.d9974bed.Emscripten.clang"
  },
  "schemaVersion": "3.4.16",
  "updatedAt": "2025-05-18T00:42:05.584Z",
  "devdoc": {
    "kind": "dev",
    "methods": {},
    "version": 1
  },
  "userdoc": {
    "kind": "user",
    "methods": {},
    "version": 1
  }
}