{
  "contractName": "Exercice4",
  "abi": [
    {
      "inputs": [
        {
          "internalType": "int256",
          "name": "nombre",
          "type": "int256"
        }
      ],
      "name": "testSigne",
      "outputs": [
        {
          "internalType": "string",
          "name": "",
          "type": "string"
        }
      ],
      "stateMutability": "pure",
      "type": "function",
      "constant": true
    }
  ],
  "bytecode": "0x608060405234801561000f575f80fd5b506102698061001d5f395ff3fe608060405234801561000f575f80fd5b5060043610610029575f3560e01c8063365572961461002d575b5f80fd5b6100476004803603810190610042919061015e565b61005d565b6040516100549190610213565b60405180910390f35b60605f8213156100a4576040518060400160405280600781526020017f506f7369746966000000000000000000000000000000000000000000000000008152509050610122565b5f8212156100e9576040518060400160405280600781526020017f4e656761746966000000000000000000000000000000000000000000000000008152509050610122565b6040518060400160405280600381526020017f4e756c000000000000000000000000000000000000000000000000000000000081525090505b919050565b5f80fd5b5f819050919050565b61013d8161012b565b8114610147575f80fd5b50565b5f8135905061015881610134565b92915050565b5f6020828403121561017357610172610127565b5b5f6101808482850161014a565b91505092915050565b5f81519050919050565b5f82825260208201905092915050565b5f5b838110156101c05780820151818401526020810190506101a5565b5f8484015250505050565b5f601f19601f8301169050919050565b5f6101e582610189565b6101ef8185610193565b93506101ff8185602086016101a3565b610208816101cb565b840191505092915050565b5f6020820190508181035f83015261022b81846101db565b90509291505056fea2646970667358221220fa32b2ef02420584c7b05e182ce6d5df4527e9a6cf7be35b48b7799632bd681c64736f6c63430008150033",
  "immutableReferences": {},
  "source": "// SPDX-License-Identifier: MIT\r\npragma solidity ^0.8.0;\r\n\r\ncontract Exercice4 {\r\n    \r\n    function testSigne(int256 nombre) public pure returns (string memory) {\r\n        if (nombre > 0) {\r\n            return \"Positif\";\r\n        } else if (nombre < 0) {\r\n            return \"Negatif\";\r\n        } else {\r\n            return \"Nul\";\r\n        }\r\n    }\r\n}\r\n",
  "sourcePath": "C:\\Users\\Yamini\\blockchain-dapp\\contracts\\Exercice4.sol",
  "compiler": {
    "name": "solc",
    "version": "0.8.21+commit.d9974bed.Emscripten.clang"
  },
  "schemaVersion": "3.4.16",
  "updatedAt": "2025-05-18T00:42:10.516Z",
  "networkType": "ethereum",
  "devdoc": {
    "kind": "dev",
    "methods": {},
    "version": 1
  },
  "userdoc": {
    "kind": "user",
    "methods": {},
    "version": 1
  }
}