{
  "contractName": "Exercice2",
  "abi": [
    {
      "inputs": [
        {
          "internalType": "uint256",
          "name": "initialRate",
          "type": "uint256"
        }
      ],
      "stateMutability": "nonpayable",
      "type": "constructor"
    },
    {
      "inputs": [],
      "name": "rateAToB",
      "outputs": [
        {
          "internalType": "uint256",
          "name": "",
          "type": "uint256"
        }
      ],
      "stateMutability": "view",
      "type": "function",
      "constant": true
    },
    {
      "inputs": [
        {
          "internalType": "uint256",
          "name": "newRate",
          "type": "uint256"
        }
      ],
      "name": "setRate",
      "outputs": [],
      "stateMutability": "nonpayable",
      "type": "function"
    },
    {
      "inputs": [
        {
          "internalType": "uint256",
          "name": "amountA",
          "type": "uint256"
        }
      ],
      "name": "convertAToB",
      "outputs": [
        {
          "internalType": "uint256",
          "name": "",
          "type": "uint256"
        }
      ],
      "stateMutability": "view",
      "type": "function",
      "constant": true
    },
    {
      "inputs": [
        {
          "internalType": "uint256",
          "name": "amountB",
          "type": "uint256"
        }
      ],
      "name": "convertBToA",
      "outputs": [
        {
          "internalType": "uint256",
          "name": "",
          "type": "uint256"
        }
      ],
      "stateMutability": "view",
      "type": "function",
      "constant": true
    }
  ],
  "bytecode": "0x608060405234801561000f575f80fd5b5060405161041238038061041283398181016040528101906100319190610074565b805f819055505061009f565b5f80fd5b5f819050919050565b61005381610041565b811461005d575f80fd5b50565b5f8151905061006e8161004a565b92915050565b5f602082840312156100895761008861003d565b5b5f61009684828501610060565b91505092915050565b610366806100ac5f395ff3fe608060405234801561000f575f80fd5b506004361061004a575f3560e01c806309146c6f1461004e5780632ead18d81461006c57806334fcf4371461009c578063c9b2086f146100b8575b5f80fd5b6100566100e8565b604051610063919061017b565b60405180910390f35b610086600480360381019061008191906101c2565b6100ed565b604051610093919061017b565b60405180910390f35b6100b660048036038101906100b191906101c2565b610102565b005b6100d260048036038101906100cd91906101c2565b61010b565b6040516100df919061017b565b60405180910390f35b5f5481565b5f8054826100fb919061021a565b9050919050565b805f8190555050565b5f805f541161014f576040517f08c379a0000000000000000000000000000000000000000000000000000000008152600401610146906102b5565b60405180910390fd5b5f548261015c9190610300565b9050919050565b5f819050919050565b61017581610163565b82525050565b5f60208201905061018e5f83018461016c565b92915050565b5f80fd5b6101a181610163565b81146101ab575f80fd5b50565b5f813590506101bc81610198565b92915050565b5f602082840312156101d7576101d6610194565b5b5f6101e4848285016101ae565b91505092915050565b7f4e487b71000000000000000000000000000000000000000000000000000000005f52601160045260245ffd5b5f61022482610163565b915061022f83610163565b925082820261023d81610163565b91508282048414831517610254576102536101ed565b5b5092915050565b5f82825260208201905092915050565b7f52617465206d75737420626520706f73697469766500000000000000000000005f82015250565b5f61029f60158361025b565b91506102aa8261026b565b602082019050919050565b5f6020820190508181035f8301526102cc81610293565b9050919050565b7f4e487b71000000000000000000000000000000000000000000000000000000005f52601260045260245ffd5b5f61030a82610163565b915061031583610163565b925082610325576103246102d3565b5b82820490509291505056fea2646970667358221220fa7379df86f286c5ab8478585cb837108d032ac18fedc6393fa64c17aa03d05b64736f6c63430008150033",
  "immutableReferences": {},
  "source": "// SPDX-License-Identifier: MIT\r\npragma solidity ^0.8.0;\r\n\r\ncontract Exercice2 {\r\n    uint256 public rateAToB;\r\n\r\n    constructor(uint256 initialRate) {\r\n        rateAToB = initialRate;\r\n    }\r\n\r\n    function setRate(uint256 newRate) public {\r\n        rateAToB = newRate;\r\n    }\r\n\r\n    function convertAToB(uint256 amountA) public view returns (uint256) {\r\n        return amountA * rateAToB;\r\n    }\r\n\r\n    function convertBToA(uint256 amountB) public view returns (uint256) {\r\n        require(rateAToB > 0, \"Rate must be positive\");\r\n        return amountB / rateAToB;\r\n    }\r\n}\r\n",
  "sourcePath": "C:\\Users\\Yamini\\blockchain-dapp\\contracts\\Exercice2.sol",
  "compiler": {
    "name": "solc",
    "version": "0.8.21+commit.d9974bed.Emscripten.clang"
  },
  "schemaVersion": "3.4.16",
  "updatedAt": "2025-05-18T00:42:10.145Z",
  "networkType": "ethereum",
  "devdoc": {
    "kind": "dev",
    "methods": {},
    "version": 1
  },
  "userdoc": {
    "kind": "user",
    "methods": {},
    "version": 1
  }
}