{
  "contractName": "Exercice8",
  "abi": [
    {
      "anonymous": false,
      "inputs": [
        {
          "indexed": true,
          "internalType": "address",
          "name": "depuis",
          "type": "address"
        },
        {
          "indexed": false,
          "internalType": "uint256",
          "name": "montant",
          "type": "uint256"
        }
      ],
      "name": "DepotRecu",
      "type": "event"
    },
    {
      "inputs": [
        {
          "internalType": "address",
          "name": "",
          "type": "address"
        }
      ],
      "name": "depots",
      "outputs": [
        {
          "internalType": "uint256",
          "name": "",
          "type": "uint256"
        }
      ],
      "stateMutability": "view",
      "type": "function",
      "constant": true
    },
    {
      "inputs": [],
      "name": "deposer",
      "outputs": [],
      "stateMutability": "payable",
      "type": "function",
      "payable": true
    },
    {
      "inputs": [
        {
          "internalType": "address",
          "name": "utilisateur",
          "type": "address"
        }
      ],
      "name": "getDepot",
      "outputs": [
        {
          "internalType": "uint256",
          "name": "",
          "type": "uint256"
        }
      ],
      "stateMutability": "view",
      "type": "function",
      "constant": true
    },
    {
      "inputs": [],
      "name": "getSoldeContrat",
      "outputs": [
        {
          "internalType": "uint256",
          "name": "",
          "type": "uint256"
        }
      ],
      "stateMutability": "view",
      "type": "function",
      "constant": true
    }
  ],
  "bytecode": "0x608060405234801561000f575f80fd5b506103fa8061001d5f395ff3fe60806040526004361061003e575f3560e01c806316a9cdf11461004257806342dc400f1461007e57806385e168b7146100885780639ea3343c146100b2575b5f80fd5b34801561004d575f80fd5b5061006860048036038101906100639190610290565b6100ee565b60405161007591906102d3565b60405180910390f35b610086610133565b005b348015610093575f80fd5b5061009c610217565b6040516100a991906102d3565b60405180910390f35b3480156100bd575f80fd5b506100d860048036038101906100d39190610290565b61021e565b6040516100e591906102d3565b60405180910390f35b5f805f8373ffffffffffffffffffffffffffffffffffffffff1673ffffffffffffffffffffffffffffffffffffffff1681526020019081526020015f20549050919050565b5f3411610175576040517f08c379a000000000000000000000000000000000000000000000000000000000815260040161016c90610346565b60405180910390fd5b345f803373ffffffffffffffffffffffffffffffffffffffff1673ffffffffffffffffffffffffffffffffffffffff1681526020019081526020015f205f8282546101c09190610391565b925050819055503373ffffffffffffffffffffffffffffffffffffffff167f4f1666c81b632f8c1c4bf3244cdb36397c2945f14b3904aec65320be764c56763460405161020d91906102d3565b60405180910390a2565b5f47905090565b5f602052805f5260405f205f915090505481565b5f80fd5b5f73ffffffffffffffffffffffffffffffffffffffff82169050919050565b5f61025f82610236565b9050919050565b61026f81610255565b8114610279575f80fd5b50565b5f8135905061028a81610266565b92915050565b5f602082840312156102a5576102a4610232565b5b5f6102b28482850161027c565b91505092915050565b5f819050919050565b6102cd816102bb565b82525050565b5f6020820190506102e65f8301846102c4565b92915050565b5f82825260208201905092915050565b7f4d6f6e74616e74206e756c206e6f6e206175746f7269736500000000000000005f82015250565b5f6103306018836102ec565b915061033b826102fc565b602082019050919050565b5f6020820190508181035f83015261035d81610324565b9050919050565b7f4e487b71000000000000000000000000000000000000000000000000000000005f52601160045260245ffd5b5f61039b826102bb565b91506103a6836102bb565b92508282019050808211156103be576103bd610364565b5b9291505056fea264697066735822122055150d3e23d73866c6bcd0147136bfe57e73e00290733ead920ec8651902410e64736f6c63430008150033",
  "immutableReferences": {},
  "source": "// SPDX-License-Identifier: MIT\r\npragma solidity ^0.8.0;\r\n\r\ncontract Exercice8 {\r\n    mapping(address => uint256) public depots;\r\n\r\n    event DepotRecu(address indexed depuis, uint256 montant);\r\n\r\n    function deposer() public payable {\r\n        require(msg.value > 0, \"Montant nul non autorise\");\r\n        depots[msg.sender] += msg.value;\r\n        emit DepotRecu(msg.sender, msg.value);\r\n    }\r\n\r\n    function getDepot(address utilisateur) public view returns (uint256) {\r\n        return depots[utilisateur];\r\n    }\r\n\r\n    function getSoldeContrat() public view returns (uint256) {\r\n        return address(this).balance;\r\n    }\r\n}\r\n",
  "sourcePath": "C:\\Users\\Yamini\\blockchain-dapp\\contracts\\Exercice8.sol",
  "compiler": {
    "name": "solc",
    "version": "0.8.21+commit.d9974bed.Emscripten.clang"
  },
  "schemaVersion": "3.4.16",
  "updatedAt": "2025-05-18T00:42:11.195Z",
  "networkType": "ethereum",
  "devdoc": {
    "kind": "dev",
    "methods": {},
    "version": 1
  },
  "userdoc": {
    "kind": "user",
    "methods": {},
    "version": 1
  }
}