{
  "contractName": "Exercice5",
  "abi": [
    {
      "inputs": [
        {
          "internalType": "uint256",
          "name": "valeur",
          "type": "uint256"
        }
      ],
      "name": "testerParties",
      "outputs": [
        {
          "internalType": "uint256",
          "name": "partieEntiere",
          "type": "uint256"
        },
        {
          "internalType": "uint256",
          "name": "partieDecimale",
          "type": "uint256"
        }
      ],
      "stateMutability": "pure",
      "type": "function",
      "constant": true
    }
  ],
  "bytecode": "0x608060405234801561000f575f80fd5b506101de8061001d5f395ff3fe608060405234801561000f575f80fd5b5060043610610029575f3560e01c80634156511c1461002d575b5f80fd5b610047600480360381019061004291906100ba565b61005e565b6040516100559291906100f4565b60405180910390f35b5f8060648361006d9190610148565b915060648361007c9190610178565b9050915091565b5f80fd5b5f819050919050565b61009981610087565b81146100a3575f80fd5b50565b5f813590506100b481610090565b92915050565b5f602082840312156100cf576100ce610083565b5b5f6100dc848285016100a6565b91505092915050565b6100ee81610087565b82525050565b5f6040820190506101075f8301856100e5565b61011460208301846100e5565b9392505050565b7f4e487b71000000000000000000000000000000000000000000000000000000005f52601260045260245ffd5b5f61015282610087565b915061015d83610087565b92508261016d5761016c61011b565b5b828204905092915050565b5f61018282610087565b915061018d83610087565b92508261019d5761019c61011b565b5b82820690509291505056fea26469706673582212205673877450acae766ef5518d5b328d2481170bff7bf4a41b32a90d6450fa613964736f6c63430008150033",
  "immutableReferences": {},
  "source": "// SPDX-License-Identifier: MIT\r\npragma solidity ^0.8.0;\r\n\r\ncontract Exercice5 {\r\n\r\n    uint256 constant DECIMALS = 100;\r\n\r\n    function testerParties(uint256 valeur) public pure returns (uint256 partieEntiere, uint256 partieDecimale) {\r\n        partieEntiere = valeur / DECIMALS;\r\n        partieDecimale = valeur % DECIMALS;\r\n    }\r\n}\r\n",
  "sourcePath": "C:\\Users\\Yamini\\blockchain-dapp\\contracts\\Exercice5.sol",
  "compiler": {
    "name": "solc",
    "version": "0.8.21+commit.d9974bed.Emscripten.clang"
  },
  "schemaVersion": "3.4.16",
  "updatedAt": "2025-05-18T00:42:10.664Z",
  "networkType": "ethereum",
  "devdoc": {
    "kind": "dev",
    "methods": {},
    "version": 1
  },
  "userdoc": {
    "kind": "user",
    "methods": {},
    "version": 1
  }
}