{
  "contractName": "Exercice3",
  "abi": [
    {
      "inputs": [
        {
          "internalType": "string",
          "name": "a",
          "type": "string"
        },
        {
          "internalType": "string",
          "name": "b",
          "type": "string"
        }
      ],
      "name": "concat",
      "outputs": [
        {
          "internalType": "string",
          "name": "",
          "type": "string"
        }
      ],
      "stateMutability": "pure",
      "type": "function",
      "constant": true
    },
    {
      "inputs": [
        {
          "internalType": "string",
          "name": "a",
          "type": "string"
        },
        {
          "internalType": "string",
          "name": "b",
          "type": "string"
        }
      ],
      "name": "compare",
      "outputs": [
        {
          "internalType": "bool",
          "name": "",
          "type": "bool"
        }
      ],
      "stateMutability": "pure",
      "type": "function",
      "constant": true
    },
    {
      "inputs": [
        {
          "internalType": "string",
          "name": "a",
          "type": "string"
        }
      ],
      "name": "length",
      "outputs": [
        {
          "internalType": "uint256",
          "name": "",
          "type": "uint256"
        }
      ],
      "stateMutability": "pure",
      "type": "function",
      "constant": true
    },
    {
      "inputs": [
        {
          "internalType": "string",
          "name": "str",
          "type": "string"
        },
        {
          "internalType": "uint256",
          "name": "startIndex",
          "type": "uint256"
        },
        {
          "internalType": "uint256",
          "name": "endIndex",
          "type": "uint256"
        }
      ],
      "name": "substring",
      "outputs": [
        {
          "internalType": "string",
          "name": "",
          "type": "string"
        }
      ],
      "stateMutability": "pure",
      "type": "function",
      "constant": true
    }
  ],
  "bytecode": "0x608060405234801561000f575f80fd5b506108128061001d5f395ff3fe608060405234801561000f575f80fd5b506004361061004a575f3560e01c80631dcd9b551461004e5780633a96fdd71461007e578063436a66e7146100ae57806389c19ddb146100de575b5f80fd5b61006860048036038101906100639190610425565b61010e565b604051610075919061050b565b60405180910390f35b6100986004803603810190610093919061052b565b610255565b6040516100a591906105bb565b60405180910390f35b6100c860048036038101906100c391906105d4565b61026f565b6040516100d5919061062a565b60405180910390f35b6100f860048036038101906100f3919061052b565b610279565b604051610105919061050b565b60405180910390f35b60605f8490508383118015610124575080518311155b610163576040517f08c379a000000000000000000000000000000000000000000000000000000000815260040161015a9061068d565b60405180910390fd5b5f848461017091906106d8565b67ffffffffffffffff811115610189576101886102ce565b5b6040519080825280601f01601f1916602001820160405280156101bb5781602001600182028036833780820191505090505b5090505f8590505b84811015610248578281815181106101de576101dd61070b565b5b602001015160f81c60f81b8287836101f691906106d8565b815181106102075761020661070b565b5b60200101907effffffffffffffffffffffffffffffffffffffffffffffffffffffffffffff191690815f1a905350808061024090610738565b9150506101c3565b5080925050509392505050565b5f8180519060200120838051906020012014905092915050565b5f81519050919050565b6060828260405160200161028e9291906107b9565b604051602081830303815290604052905092915050565b5f604051905090565b5f80fd5b5f80fd5b5f80fd5b5f80fd5b5f601f19601f8301169050919050565b7f4e487b71000000000000000000000000000000000000000000000000000000005f52604160045260245ffd5b610304826102be565b810181811067ffffffffffffffff82111715610323576103226102ce565b5b80604052505050565b5f6103356102a5565b905061034182826102fb565b919050565b5f67ffffffffffffffff8211156103605761035f6102ce565b5b610369826102be565b9050602081019050919050565b828183375f83830152505050565b5f61039661039184610346565b61032c565b9050828152602081018484840111156103b2576103b16102ba565b5b6103bd848285610376565b509392505050565b5f82601f8301126103d9576103d86102b6565b5b81356103e9848260208601610384565b91505092915050565b5f819050919050565b610404816103f2565b811461040e575f80fd5b50565b5f8135905061041f816103fb565b92915050565b5f805f6060848603121561043c5761043b6102ae565b5b5f84013567ffffffffffffffff811115610459576104586102b2565b5b610465868287016103c5565b935050602061047686828701610411565b925050604061048786828701610411565b9150509250925092565b5f81519050919050565b5f82825260208201905092915050565b5f5b838110156104c85780820151818401526020810190506104ad565b5f8484015250505050565b5f6104dd82610491565b6104e7818561049b565b93506104f78185602086016104ab565b610500816102be565b840191505092915050565b5f6020820190508181035f83015261052381846104d3565b905092915050565b5f8060408385031215610541576105406102ae565b5b5f83013567ffffffffffffffff81111561055e5761055d6102b2565b5b61056a858286016103c5565b925050602083013567ffffffffffffffff81111561058b5761058a6102b2565b5b610597858286016103c5565b9150509250929050565b5f8115159050919050565b6105b5816105a1565b82525050565b5f6020820190506105ce5f8301846105ac565b92915050565b5f602082840312156105e9576105e86102ae565b5b5f82013567ffffffffffffffff811115610606576106056102b2565b5b610612848285016103c5565b91505092915050565b610624816103f2565b82525050565b5f60208201905061063d5f83018461061b565b92915050565b7f496e646578206f7574206f662072616e676500000000000000000000000000005f82015250565b5f61067760128361049b565b915061068282610643565b602082019050919050565b5f6020820190508181035f8301526106a48161066b565b9050919050565b7f4e487b71000000000000000000000000000000000000000000000000000000005f52601160045260245ffd5b5f6106e2826103f2565b91506106ed836103f2565b9250828203905081811115610705576107046106ab565b5b92915050565b7f4e487b71000000000000000000000000000000000000000000000000000000005f52603260045260245ffd5b5f610742826103f2565b91507fffffffffffffffffffffffffffffffffffffffffffffffffffffffffffffffff8203610774576107736106ab565b5b600182019050919050565b5f81905092915050565b5f61079382610491565b61079d818561077f565b93506107ad8185602086016104ab565b80840191505092915050565b5f6107c48285610789565b91506107d08284610789565b9150819050939250505056fea26469706673582212209db361723c0b5336e023e1dc149fa460461cc2c85854f272d7d689556dba36d264736f6c63430008150033",
  "immutableReferences": {},
  "source": "// SPDX-License-Identifier: MIT\r\npragma solidity ^0.8.0;\r\n\r\ncontract Exercice3 {\r\n    \r\n    function concat(string memory a, string memory b) public pure returns (string memory) {\r\n        return string(abi.encodePacked(a, b));\r\n    }\r\n\r\n    function compare(string memory a, string memory b) public pure returns (bool) {\r\n        return keccak256(bytes(a)) == keccak256(bytes(b));\r\n    }\r\n\r\n    function length(string memory a) public pure returns (uint256) {\r\n        return bytes(a).length;\r\n    }\r\n\r\n    function substring(string memory str, uint startIndex, uint endIndex) public pure returns (string memory) {\r\n        bytes memory strBytes = bytes(str);\r\n        require(endIndex > startIndex && endIndex <= strBytes.length, \"Index out of range\");\r\n        \r\n        bytes memory result = new bytes(endIndex - startIndex);\r\n        \r\n        for(uint i = startIndex; i < endIndex; i++) {\r\n            result[i - startIndex] = strBytes[i];\r\n        }\r\n        \r\n        return string(result);\r\n    }\r\n}\r\n",
  "sourcePath": "C:\\Users\\Yamini\\blockchain-dapp\\contracts\\Exercice3.sol",
  "compiler": {
    "name": "solc",
    "version": "0.8.21+commit.d9974bed.Emscripten.clang"
  },
  "schemaVersion": "3.4.16",
  "updatedAt": "2025-05-18T00:42:10.363Z",
  "networkType": "ethereum",
  "devdoc": {
    "kind": "dev",
    "methods": {},
    "version": 1
  },
  "userdoc": {
    "kind": "user",
    "methods": {},
    "version": 1
  }
}