{
  "contractName": "Exercice6",
  "abi": [
    {
      "inputs": [
        {
          "internalType": "uint256",
          "name": "",
          "type": "uint256"
        }
      ],
      "name": "tableau",
      "outputs": [
        {
          "internalType": "int256",
          "name": "",
          "type": "int256"
        }
      ],
      "stateMutability": "view",
      "type": "function",
      "constant": true
    },
    {
      "inputs": [
        {
          "internalType": "int256",
          "name": "valeur",
          "type": "int256"
        }
      ],
      "name": "ajouter",
      "outputs": [],
      "stateMutability": "nonpayable",
      "type": "function"
    },
    {
      "inputs": [
        {
          "internalType": "uint256",
          "name": "index",
          "type": "uint256"
        }
      ],
      "name": "supprimer",
      "outputs": [],
      "stateMutability": "nonpayable",
      "type": "function"
    },
    {
      "inputs": [
        {
          "internalType": "uint256",
          "name": "index",
          "type": "uint256"
        }
      ],
      "name": "getElement",
      "outputs": [
        {
          "internalType": "int256",
          "name": "",
          "type": "int256"
        }
      ],
      "stateMutability": "view",
      "type": "function",
      "constant": true
    },
    {
      "inputs": [],
      "name": "taille",
      "outputs": [
        {
          "internalType": "uint256",
          "name": "",
          "type": "uint256"
        }
      ],
      "stateMutability": "view",
      "type": "function",
      "constant": true
    },
    {
      "inputs": [
        {
          "internalType": "int256",
          "name": "valeur",
          "type": "int256"
        }
      ],
      "name": "contient",
      "outputs": [
        {
          "internalType": "bool",
          "name": "",
          "type": "bool"
        }
      ],
      "stateMutability": "view",
      "type": "function",
      "constant": true
    }
  ],
  "bytecode": "0x608060405234801561000f575f80fd5b5061066b8061001d5f395ff3fe608060405234801561000f575f80fd5b5060043610610060575f3560e01c80633a7d22bc146100645780634f3e153c1461009457806356500f2a146100b05780638c0b079f146100e057806398d21063146100fc578063e8a38d531461012c575b5f80fd5b61007e6004803603810190610079919061037d565b61014a565b60405161008b91906103c0565b60405180910390f35b6100ae60048036038101906100a99190610403565b6101b4565b005b6100ca60048036038101906100c5919061037d565b6101dc565b6040516100d791906103c0565b60405180910390f35b6100fa60048036038101906100f5919061037d565b6101fb565b005b61011660048036038101906101119190610403565b6102e0565b6040516101239190610448565b60405180910390f35b61013461033b565b6040516101419190610470565b60405180910390f35b5f80805490508210610191576040517f08c379a0000000000000000000000000000000000000000000000000000000008152600401610188906104e3565b60405180910390fd5b5f82815481106101a4576101a3610501565b5b905f5260205f2001549050919050565b5f81908060018154018082558091505060019003905f5260205f20015f909190919091505550565b5f81815481106101ea575f80fd5b905f5260205f20015f915090505481565b5f805490508110610241576040517f08c379a0000000000000000000000000000000000000000000000000000000008152600401610238906104e3565b60405180910390fd5b5f8190505b60015f80549050610257919061055b565b8110156102b8575f60018261026c919061058e565b8154811061027d5761027c610501565b5b905f5260205f2001545f828154811061029957610298610501565b5b905f5260205f20018190555080806102b0906105c1565b915050610246565b505f8054806102ca576102c9610608565b5b600190038181905f5260205f20015f9055905550565b5f805f90505b5f8054905081101561033157825f828154811061030657610305610501565b5b905f5260205f2001540361031e576001915050610336565b8080610329906105c1565b9150506102e6565b505f90505b919050565b5f8080549050905090565b5f80fd5b5f819050919050565b61035c8161034a565b8114610366575f80fd5b50565b5f8135905061037781610353565b92915050565b5f6020828403121561039257610391610346565b5b5f61039f84828501610369565b91505092915050565b5f819050919050565b6103ba816103a8565b82525050565b5f6020820190506103d35f8301846103b1565b92915050565b6103e2816103a8565b81146103ec575f80fd5b50565b5f813590506103fd816103d9565b92915050565b5f6020828403121561041857610417610346565b5b5f610425848285016103ef565b91505092915050565b5f8115159050919050565b6104428161042e565b82525050565b5f60208201905061045b5f830184610439565b92915050565b61046a8161034a565b82525050565b5f6020820190506104835f830184610461565b92915050565b5f82825260208201905092915050565b7f496e64657820686f7273206c696d6974657300000000000000000000000000005f82015250565b5f6104cd601283610489565b91506104d882610499565b602082019050919050565b5f6020820190508181035f8301526104fa816104c1565b9050919050565b7f4e487b71000000000000000000000000000000000000000000000000000000005f52603260045260245ffd5b7f4e487b71000000000000000000000000000000000000000000000000000000005f52601160045260245ffd5b5f6105658261034a565b91506105708361034a565b92508282039050818111156105885761058761052e565b5b92915050565b5f6105988261034a565b91506105a38361034a565b92508282019050808211156105bb576105ba61052e565b5b92915050565b5f6105cb8261034a565b91507fffffffffffffffffffffffffffffffffffffffffffffffffffffffffffffffff82036105fd576105fc61052e565b5b600182019050919050565b7f4e487b71000000000000000000000000000000000000000000000000000000005f52603160045260245ffdfea26469706673582212206e95eae47101e2dbc0dbb7271f1eefc7a3507bb3836420e13e7b5d3b6da20ee964736f6c63430008150033",
  "immutableReferences": {},
  "source": "// SPDX-License-Identifier: MIT\r\npragma solidity ^0.8.0;\r\n\r\ncontract Exercice6 {\r\n    int[] public tableau;\r\n\r\n    function ajouter(int valeur) public {\r\n        tableau.push(valeur);\r\n    }\r\n\r\n    function supprimer(uint index) public {\r\n        require(index < tableau.length, \"Index hors limites\");\r\n        \r\n        for (uint i = index; i < tableau.length - 1; i++) {\r\n            tableau[i] = tableau[i + 1];\r\n        }\r\n        tableau.pop();\r\n    }\r\n\r\n    function getElement(uint index) public view returns (int) {\r\n        require(index < tableau.length, \"Index hors limites\");\r\n        return tableau[index];\r\n    }\r\n\r\n    function taille() public view returns (uint) {\r\n        return tableau.length;\r\n    }\r\n\r\n    function contient(int valeur) public view returns (bool) {\r\n        for (uint i = 0; i < tableau.length; i++) {\r\n            if (tableau[i] == valeur) {\r\n                return true;\r\n            }\r\n        }\r\n        return false;\r\n    }\r\n}\r\n",
  "sourcePath": "C:\\Users\\Yamini\\blockchain-dapp\\contracts\\Exercice6.sol",
  "compiler": {
    "name": "solc",
    "version": "0.8.21+commit.d9974bed.Emscripten.clang"
  },
  "schemaVersion": "3.4.16",
  "updatedAt": "2025-05-18T00:42:10.817Z",
  "networkType": "ethereum",
  "devdoc": {
    "kind": "dev",
    "methods": {},
    "version": 1
  },
  "userdoc": {
    "kind": "user",
    "methods": {},
    "version": 1
  }
}